:100000000C942F030C944C030C944C030C944C0351
:100010000C944C030C944C030C944C030C944C0324
:100020000C944C030C944C030C9473310C944B3291
:100030000C9428310C944C030C944C030C944C03FA
:100040000C944C030C944C030C944C030C944C03F4
:100050000C944C030C944F310C944C030C944C03B3
:100060000C944C030C944C030C944C030C944C03D4
:100070000C944C030C944C030C944C030C944C03C4
:100080000C944C030C944C030C944C030C944C03B4
:100090000C944C030C944C030C944C030C944C03A4
:1000A0000C944C030C944C030C944C0305010980F4
:1000B000A101850319012AB700150126B700950192
:1000C00075108100C0050C0901A101850419012AE0
:1000D000A002150126A002950175108100C005013E
:1000E0000906A1018506050719E029E71500250184
:1000F0009508750181020507190029EF15002501F2
:1001000095F075018102050819012905950575010C
:100110009102950175039101C00660FF0961A1017B
:100120000962150026FF00952075088102096315F4
:100130000026FF00952075089102C005010906A15F
:1001400001050719E029E7150025019508750181CA
:10015000029501750881010507190029FF15002680
:10016000FF0095067508810005081901290515008D
:100170002501950575019102950175039101C0094D
:10018000025B00030100A032090400000103010129
:100190000009211101000122440007058103080024
:1001A00001090401000203000000092111010001FE
:1001B0002222000705820320000107050303200017
:1001C00001090402000103000000092111010001DE
:1001D000226D0007058403200001120100020000C7
:1001E000000866AA010001000102000110036A0074
:1001F00074006E006B00360036006C0000001A03BD
:10020000740061006E0061006B0061006A0075009F
:100210006E006A0075006E000000040309043500DA
:100220001E001F00200021002200230024002B00BC
:1002300014001A000800150017001C0018003900EF
:1002400004001600070009000A000B000D00E10081
:100250001D001B0006001900050011001000E00041
:10026000E300E2002C000000000000000000250078
:10027000260027002D002E002A00000000000C00A0
:10028000120013002F0030003100000000000E00AB
:100290000F00330034002800000046000000360044
:1002A000370038008700E500520000000000000021
:1002B000E600E4002152500051004F000000010010
:1002C0003A003B003C003D003E003F004000010082
:1002D000217822782778287829782A7823780100CD
:1002E0000100010001000100010001000100010006
:1002F00001000100010001000100010001000100F6
:1003000001000100010000000000000000004100A9
:1003100042004300440045004C00000000002478E7
:10032000257826780100010001000000000001008E
:100330000100010001000100000020780000010020
:1003400001000100010001004B000000000000005E
:100350000100010001004A004E004D0000000100B4
:100360000100010001000100010001000100010085
:100370000100010001000100010001000100010075
:100380000100010001000100010001000100010065
:100390000100010001000100010001000100010055
:1003A0000100010001000000000000000000010049
:1003B0000100010001000100010000000000010037
:1003C0000100010001000100010000000000010027
:1003D0000100010001000100000001000000010017
:1003E0000100010001000100010000000000000008
:1003F00001000100010001000100010000000100F6
:1004000001000100010001000100010001000100E4
:1004100001000100010001000100010001000100D4
:1004200001000100010001000100010001000100C4
:1004300001000100010001000100010001000100B4
:1004400001000100010000000000000000000100A8
:100450000100010001000100010000000000010096
:100460000100010001000100010000000000010086
:100470000100010001000100000001000000010076
:100480000100010001000100010000000000000067
:100490000100010001000100010001000000A900AD
:1004A000AA002178227850004F005100520000012C
:1004B0000101010101010101020202020202020224
:1004C00002030303030303030304040404040404F6
:1004D00005050505050606060606070707070708BA
:1004E000080808090909090A0A0A0B0B0B0C0C0C6D
:1004F0000D0D0D0E0E0E0F0F0F1010111111121207
:1005000013131414151516161717181819191A1A83
:100510001B1B1C1D1D1E1E1F2020212222232424E4
:10052000252626272829292A2B2C2D2D2E2F303120
:100530003232333435363738393A3B3C3D3E3F4032
:100540004142434445464748494A4C4D4E4F50511D
:100550005354555658595A5B5D5E5F6162646566D7
:1005600068696B6C6D6F7072737577787A7B7D7E5E
:100570008082838587888A8C8E8F91939596989AAE
:100580009C9EA0A2A3A5A7A9ABADAFB1B3B5B7BAC6
:10059000BCBEC0C2C4C6C9CBCDCFD1D4D6D8DBDD9A
:1005A000DFE2E4E7E9EBEEF0F3F5F8FAFDFF000037
:1005B000000000000000000000000000000000003B
:1005C000000000000000000000000000000000002B
:1005D00000007E0F00D4FFFFFFC70000007800007E
:1005E0000000000000002A2B28000000000000008E
:1005F00000000000000000000029000000002C1E88
:100600003420212224342627252E362D3738271E44
:100610001F202122232425263333362E37381F046A
:1006200005060708090A0B0C0D0E0F101112131402
:1006300015161718191A1B1C1D2F3130232D3504C0
:1006400005060708090A0B0C0D0E0F1011121314E2
:1006500015161718191A1B1C1D2F3130354C112473
:100660001FBECFEFDAE0DEBFCDBF27E0A0EFB2E0E4
:1006700001C01D92A034B207E1F712E0A0E0B1E0A2
:10068000E0EDF9E602C005900D92A03FB107D9F761
:100690000E94192B0C944C340C9400008093F906A2
:1006A00008958093FA06089521E030E001C0220FFA
:1006B0008A95EAF78091FA06822B0E9451030895E9
:1006C00021E030E0A90102C0440F551F8A95E2F7EE
:1006D000CA0180959091FA0689230E9451030895DA
:1006E0009B01677091E001C0990F6A95EAF763E09A
:1006F000369527956A95E1F7B901660F771F260FA2
:10070000371FFA01E20FF31F40E050E0682F70E05E
:100710008191DF0111979B01042E02C03695279528
:100720000A94E2F7217021952827292328272C9362
:100730004F5F5F4F4330510559F708959C01A82F33
:10074000A77083E0369527958A95E1F7C901880F50
:10075000991F820F931FFB01E80FF91F40E050E043
:1007600080E0219130E00A2E02C0369527950A9448
:10077000E2F721703327042E01C0220F0A94EAF712
:10078000822B4F5F5F4F4330510559F70895282F53
:10079000862F9A3068F4283050F438E0939FB001E7
:1007A0001124620F711D4CEC56E00E9470030895F5
:1007B0009C5F9230E0F7622F70E049EC56E0F5CF95
:1007C000282F9A3068F4883090F438E0939FC00165
:1007D00011246CEC76E0820F911D0E949E03089517
:1007E0009C5F923020F469EC76E090E0F6CF80E0F8
:1007F00008959091FA0621E030E0F90101C0EE0F72
:100800008A95EAF7D90102C0AA0FBB1F6A95E2F7E1
:10081000EA2B01C0220F4A95EAF7892F8E23E813AD
:1008200005C0892F822B0E94510308952095822FA5
:100830008923F9CF809100079091FF06981301C09A
:1008400008958F5F8770FACF9091FB06809589237A
:100850008093FB06282F277021110DC0891759F0AE
:100860009091FD0692FF07C08695869586950E9419
:1008700060031092FB0608958091F6069091FE06A3
:10088000892B5091F7065523C1F0909115019923BA
:10089000A9F09091FC0697FF11C09DE124EF32E092
:1008A00040E0F90160812F5F3F4F61114F5F915030
:1008B000C0F741111092F706852B089595E024E1C9
:1008C00033E0EECF982F90958091F60689238093A0
:1008D000F6060895803E9105D1F1C8F48133910563
:1008E00009F47FC048F48932910509F46FC08A3257
:1008F000910509F47DC0089589339105E1F08238AE
:100900009105C9F08533910509F45BC00895843ED3
:100910009105D1F148F4823E910531F1833E910574
:1009200041F181EE90E00895863E9105C1F1873E48
:100930009105E1F108952091FC062370211165C015
:100940002091FD0623FF14C089E290E008952091D4
:10095000FC0620FD43C03091FD0630FF09C024FF96
:100960004EC080E090E008952091FC0622FDF7CF74
:1009700008952091FC0622FD45C03091FD0630FD12
:1009800044C024FFF5CFEDCF2091FD0621FFF0CF2D
:100990008091FC0684FDE5CF87EE90E008952091DC
:1009A000FC0623FFE5CF24FDDCCFF6CF2091FC062B
:1009B00023FD2EC03091FD0631FFE3CF84EE90E0A1
:1009C00008952091FC0625FFD3CFBECF2091FC06D1
:1009D00025FD21C02091FD0623FFCACF89E390E0C9
:1009E00008952091FC0626FFC3CF8AE290E0089587
:1009F0002091FC0626FFBCCF81E390E0089583EEB2
:100A000090E0089582EE90E0089580EE90E00895E1
:100A100086EE90E0089585E390E0AACF9091FC06E1
:100A200092FF10C041E0282F2471243009F040E0EB
:100A300031E0282F2871283009F030E0431711F0F9
:100A40002CE0822793FF10C041E0282F247124312D
:100A500009F040E031E0282F2871283109F030E01A
:100A6000431711F02CE082273091FD0630FF10C0B3
:100A700051E0282F2171213009F050E041E0282F6A
:100A80002871283009F040E0541711F029E082273E
:100A900031FF10C041E0282F2171213109F040E0E1
:100AA00031E0282F2871283109F030E0431711F088
:100AB00029E0822794FD877E08951F93CF93DF93CB
:100AC0000E946A04EC01811522E5920708F053C0E8
:100AD000811540E5940708F0DDC0803E9105F8F4EB
:100AE0008D3C910508F0AEC0883A910580F4853AB6
:100AF000910508F099C08130910521F00497813A61
:100B0000910550F4CE01DF91CF911F910895885A3D
:100B100091094B9708F48BC0C0E0D0E0F3CF81156A
:100B200050E49507F8F4C11580E2D80708F0CBC06F
:100B3000C83ED10538F3CE019A9581159F4160F7E3
:100B40008D2F0E940E05182FCE0199270E946A044E
:100B5000212F30E0322F2227E901CC27DF71C82B6B
:100B6000D92BD0CF99270E946A04CC27DF70C82BDD
:100B7000D92BD06AC7CF803842E59407C8F58036B4
:100B800052E5950708F067C0C03482E5D807B0F099
:100B90008C2F86958695877020E2829FC001112454
:100BA000C37021E030E0A90102C0440F551FCA956F
:100BB000E2F7EA01C82BD92BDC68A4CFC03252E59A
:100BC000D50708F041C08C2F8695869520E2829F3C
:100BD000C0011124C37021E030E0A90102C0440F1C
:100BE000551FCA95E2F7EA01C82BD92BDD688ACFD9
:100BF000803C52E5950760F48F71C03AD24508F009
:100C00003FC090E0982F8827EC01C46FD06A7ACF5C
:100C1000805C9245809708F07FCFDC2FCC27CC27D3
:100C2000DF71C06FD06A6ECFA497D0646BCFC85A03
:100C3000D0E0CC0FDD1FC754DD4F0990D881C02D07
:100C4000D46460CFD0655ECFCF71D0E0DC2FCC27ED
:100C5000C16FD06A57CF86958695877020E2829FB4
:100C6000C0011124C37021E030E0A90102C0440F8B
:100C7000551FCA95E2F7EA01C82BD92BDA6842CF93
:100C80000E940E05C82FD0E0DC2FCC27CC27DF71C7
:100C9000D06238CF8F710E940E0565E0D695C7955A
:100CA0006A95E1F7CF70D0E0DC2FCC27282F30E019
:100CB00084FF05C054E0220F331F5A95E1F7C22B81
:100CC000D32BD0691FCF8D2F8F710E940E05182F47
:100CD000CE0199270E946A04212F30E0322F22276B
:100CE00022273F71282B392BE901D2CF80E00895CC
:100CF000A0E0B0E0EEE7F6E00C94DD32E82FF0E0A3
:100D0000E255FB4F711109C0E4918E2F7E2F6E2F9B
:100D1000CDB7DEB7EAE00C94F932262F30E0C72FCA
:100D2000D0E0F491EF2F86E0829F8001839F100D29
:100D30001124EE24EA94F12CC801B7010E94A032DC
:100D4000AB01220F331F65E5649FC001659F900DC5
:100D50001124281B390B822F880F280FC7018C1BE9
:100D60009D0BF89FD001F99FB00D11248B2F2C9F64
:100D7000B0012D9F700D1124672F77275701A61AF8
:100D8000B70AFA9D6001FB9DD00C11247D2D5701FF
:100D9000A21AB10895012C9F50012D9FB00C3C9FC9
:100DA000B00C1124AB2CBB24EA18FB08FE9DE0011B
:100DB000FF9DD00D112443305105C1F00C3F93E04D
:100DC000190750F44130510509F4A1CF42305105C3
:100DD00089F07E2FED2F9BCF4430510571F04630C6
:100DE0005105B9F3EB2F8D2D7F2F91CFED2D7B2F5B
:100DF0008F2F8DCF7B2F8D2F8ACF7D2FEB2FF8CF8D
:100E00009C0180E090E0269F812D369F800D911DF2
:100E1000112408959C018230910508F408959FEFF4
:100E2000213E8EE1380740F4C90145E0969587954B
:100E30004A95E1F798E0980F61E0E62FE90FFF2768
:100E4000FF1FAF0155954795842F449FF001459FA3
:100E5000F00DF00D11242E173F0738F49FEF940F7B
:100E6000961758F78FEF860F08954F3FE9F361E02B
:100E7000640FF6CF4091090150910A0125E038E056
:100E8000429FC001439F900D529F900D1124875E99
:100E9000994C90930A0180930901890F0895982F26
:100EA000E82F96FDE0958E2F8F7096FD8F5FE6956B
:100EB000E695E695E670F0E0E758FE4F2181289F21
:100EC000202D812D112422952F708295807F282B33
:100ED0008081820F97FD819580580895FC019B01C8
:100EE000009719F4832F80780895AC0197FF04C010
:100EF00044275527481B590BB901640F751F37FD4F
:100F00000FC0C901841B950BA5E0880F991FAA95F6
:100F1000E1F70E94B43280E2861BF7FD81950895C7
:100F2000CB0165E0880F991F6A95E1F7BA01621B52
:100F3000730B0E94B43280E6EFCF1F93172F922FCE
:100F4000E42FF0E0EE0FFF1FED51FE4F408124EE45
:100F5000429F412D1124E72FF0E050E09A01245EDA
:100F60003F4F291B310937FF03C0319521953109C6
:100F700093E0220F331F9A95E1F7E21BF30BF7FF83
:100F800002C0E0E0F0E07E2F719F712D11241F91CF
:100F900008951F93182F822FE42FF0E0EE0FFF1F0C
:100FA000ED51FE4F408124EE429F412D1124E12F4F
:100FB000F0E050E09A01245E3F4F281B310937FFD3
:100FC00003C031952195310983E0220F331F8A95A3
:100FD000E1F7CF01821B930B9C0197FF02C020E039
:100FE00030E0219F212D1124822F1F9108950F930E
:100FF0001F93CF93DF93D62F172FC82FBA01C901A4
:10100000212F201B022F0E946E07982F990F990FF6
:10101000782F791B700F719F712D11246D2F8C2FDC
:10102000DF91CF911F910F910895FF920F931F931E
:10103000CF93DF93D62FC72F182FBA01C901F12EF6
:10104000F01A0E946E07982F990F990F082F091B0D
:101050000F0D019F012D11246D2F7C2F802FCDB7F7
:10106000DEB7E5E00C94FE32EF920F931F93CF931F
:10107000DF93D62F172FC82FBA01C9010E19010F00
:101080000E946E07702F781B719F712D11246D2F98
:101090008C2FDF91CF911F910F91EF900895EF92D8
:1010A0000F931F93CF93DF93D62FC72F182FBA011B
:1010B000C9010E19010F0E946E07081B019F012D27
:1010C00011246D2F7C2F802FDF91CF911F910F91D5
:1010D000EF900895622F0895E42FF0E0EE0FFF1FC8
:1010E000ED51FE4F6081621B0895E42FF0E0EE0F9A
:1010F000FF1FEC51FE4F6081621B0895322F50E0BC
:10110000FA01EE0FFF1FEC51FE4F9081905297FDB8
:101110009195440F551FFA01ED51FE4F2081231B7D
:10112000330B290F311D97FD3A95620F0895EF9209
:101130000F931F9310E09801220F331F200F311FD0
:10114000359527956E2D620F1F910F91EF900895A1
:101150000F93CF93DF93D72FC82FB90147FD419548
:1011600028E330E0241B310947FD3395229FA0017D
:10117000239F500D500D1124669FC001679F900D55
:10118000900D1124840F951F0E940A07982F990F24
:10119000692F680F600F7D2F8C2FDF91CF910F91FA
:1011A00008950F93CF93DF93D72FC82FBA01C901AA
:1011B0000E946E07682F600F7D2F8C2FDF91CF91DB
:1011C0000F910895EF920F93CF93DF93D72FC82FEE
:1011D000BA01C9010E190E946E07602F681B7D2F8E
:1011E0008C2FDF91CF910F91EF9008950F931F9364
:1011F000522F10E0F801EE0FFF1FEC51FE4FA081BF
:10120000A052BB0B9D015203F001539FF00D11241E
:10121000000F111FD801AD51BE4F2C912057330B39
:101220004203D001439FB00D11249F012A0F3B1FA1
:1012300037FF02C021583F4F220F232F221F330BAD
:10124000620F1F910F9108950F931F93522F10E07B
:10125000F801EE0FFF1FEC51FE4FA081A052BB0B17
:101260009D015203F001539FF00D1124000F111F37
:10127000D801AD51BE4F2C912057330B4203D00102
:10128000439FB00D11249F012A0F3B1F37FF02C05F
:10129000215C3F4F96E0359527959A95E1F7620FCF
:1012A0001F910F9108950F931F93A42F10E0F80141
:1012B000EE0FFF1FED51FE4F9081905797FD9195D6
:1012C000000F111FF801EC51FE4F00810052110B6D
:1012D0002003A001219F500D112428E330E0291B99
:1012E000310997FD33951A2F1203F001139FF00D6A
:1012F00011244E0F5F1F9A01220F331F240F351F39
:1013000037FF02C021583F4F220F232F221F330BDC
:10131000620F1F910F9108950F931F93CF93DF9347
:10132000D62F072F182FC42F822F0E944F07982FD8
:10133000EC2FF0E0EE0FFF1FED51FE4F8081805843
:10134000980F97FD9195990F292F3CE0239F212D10
:101350001124622F6D0F702F812FDF91CF911F917C
:101360000F910895E42FF0E0EE0FFF1FED51FE4FB7
:101370009081921B97FD9195292F38E1239F212D74
:101380001124620F0895A4E0B0E0E9ECF9E00C94B8
:10139000E5322091F20630E1230F08F42FEF60E1EF
:1013A000822F90E00E940007BC0188EB9BE00E9426
:1013B000A032CB01A0E0B0E0BC01CD012496E2E078
:1013C0000C9401334095282F429F412D1124842FE6
:1013D000089522E8241B08F420E0620F08959091FC
:1013E000DC05982B9093DC050895FA0128E0829F94
:1013F000C00111248D569E4FDC01A60FB11D8C91AA
:101400008F3F19F0808381E0089580E008950E9465
:10141000C90A08950E94EA0A0895809308018091FC
:10142000EE068370809307010E94B60F83E08093DD
:1014300016010895982F862F2091EE0623702223FF
:1014400089F0992381F0963280F49F73990F990F58
:101450002091EE062370922B9093EE0610921601C7
:101460000E94EF09089591E0F1CF95E2EFCF8091CE
:10147000EE06869586958F5F863208F081E061E002
:101480000E941A0A08959091EE06969596958FEF10
:10149000890F913009F485E261E00E941A0A0895EB
:1014A000982F822F2091EE062370222341F09093F3
:1014B000EF066093F0064093F1060E94EF0908954D
:1014C000EEEEF6E0818190E021E0438162810896B2
:1014D0000E94500A0895EEEEF6E0818121E04381FA
:1014E00062818850990B0E94500A0895EEEEF6E052
:1014F000628120E1620F08F46FEF818121E0438176
:1015000090E00E94500A0895EEEEF6E0628120E13C
:10151000621B08F460E0818121E0438190E00E9439
:10152000500A0895EEEEF6E0438120E1420F08F400
:101530004FEF818121E0628190E00E94500A08957E
:10154000EEEEF6E0438120E1421B08F440E08181A9
:1015500021E0628190E00E94500A0895EEEEF6E0EC
:10156000248130E1230F08F42FEF248381E00E94CF
:10157000EF090895EEEEF6E0248130E1231B08F434
:1015800020E0248381E00E94EF0908951092FE0379
:101590000895CF93DF93DC01FC01EE0FFF1FEF01F5
:1015A000CA0FDB1FC85CDC4F8981861306C08881A7
:1015B000841303C08A81821751F081E08093FE0377
:1015C000EA0FFB1FE85CFC4F618340832283DF91BD
:1015D000CF910895FF920F931F93CF93DF93182F0E
:1015E000062FF42EC0E0D0E02F2D402F612FCE012A
:1015F0000E94C90A2196C234D105B1F7CDB7DEB732
:10160000E5E00C94FE32FA01882311F00995089563
:10161000FB01FCCFE091BF06F091C006309729F0A6
:101620000190F081E02D0995089580E00895A3E0F0
:10163000B0E0EDE1FBE00C94E5329C0180913603D3
:101640009091370382179307A1F0309337032093CB
:101650003603E091BF06F091C006309751F083E069
:1016600089833B832A830084F185E02DCE01019696
:1016700009952396E2E00C940133A3E0B0E0E3E4A3
:10168000FBE00C94E5329C0180913403909135038A
:1016900082179307A1F03093350320933403E09130
:1016A000BF06F091C006309751F084E089833B83F8
:1016B0002A830084F185E02DCE01019609952396B9
:1016C000E2E00C940133909115019923C1F09091BF
:1016D000FC0697FF14C0E82FE695E695E695803F57
:1016E000F8F4F0E0EE50FD4F877021E030E001C0EB
:1016F000220F8A95EAF78281822B82830895A4E1E2
:10170000B3E0EFEF90E02D91821751F0EF3F19F425
:10171000211101C0E92F9F5F9630A9F7EF3F09F42F
:1017200008950E2E000CFF0BEE5EFC4FE6CF90915D
:1017300015019923E1F09091FC0697FF18C0E82F5E
:10174000E695E695E695803FF0F4F0E0EE50FD4F2B
:10175000877021E030E0A90102C0440F551F8A952F
:10176000E2F7CA0180959281892382830895E4E19A
:10177000F3E09191891303C0DF0111971C9253E0AC
:10178000EA31F507B1F708952FB7F8948091030473
:1017900090910404A0910504B09106042FBF089510
:1017A000A4E0B0E0E6EDFBE00C94E5328FB7F894EE
:1017B00020910304309104044091050450910604E3
:1017C00029833A834B835C838FBF69817A818B81C4
:1017D0009C812496E2E00C9401339C014FB7F8946D
:1017E0008091030490910404A0910504B091060433
:1017F0004FBF821B930B089587E797E790930108EB
:101800008093000888E19AE00FB6F894A895809339
:1018100060000FBE90936000FFCF80913303089566
:101820000895FC019B018091290390912A0386175A
:10183000970740F0672B29F48091E8008E7780931A
:10184000E800C90140E0009741F4411106C08091D1
:10185000E80082FF2FC080E0089520919C0622239B
:10186000A9F12530A9F12091E80023FD2DC0209198
:10187000E80022FDECCF2091E80020FFE4CF30917A
:10188000F3002091F200009719F02830310558F04C
:1018900041E02830310509F040E02091E8002E7742
:1018A0002093E800D0CF41914093F10001972F5F42
:1018B0003F4FE9CF80919C06882341F0853041F06D
:1018C0008091E80083FFC3CF81E0089582E008950E
:1018D00083E008958091230387FF13C08091E8007F
:1018E00082FF06C08091E8008B778093E80004C0F7
:1018F00080919C068111F2CF089580919C068823E7
:10190000D9F38091E80080FFF8CF8091E8008E77CE
:10191000ECCF2091E4003091E50095E6A90180919B
:10192000EC008170882331F08091E80080FF06C0D0
:1019300080E008952091E80022FD1BC080919C0664
:10194000882391F0853091F08091EB0085FD10C0E7
:101950002091E4003091E5004217530701F39150C4
:101960009111DCCF84E0089582E0089583E008952A
:1019700081E00895E8EDF0E080818E7F8083109211
:10198000E2001092DA001092E100A0EEB0E08C913B
:1019900081608C9380818F77808319BCA7EDB0E044
:1019A0008C918E7F8C9380818F7E80831092220316
:1019B0000895A0E0B0E0EFEDFCE00C94DD326C01A6
:1019C0006091F20666958091CE059091CF050E94B8
:1019D0000007182F87E6A82E82E0B82E93EEE92E96
:1019E00091E0F92EC0E0D0E0F50181915F01909186
:1019F000050189238823C1F0F70121812052330B8F
:101A000040814057550B6091EF067091F006809130
:101A1000F106012FF60109950E947806462F672FDF
:101A2000282FCE010E94070A2196F2E0EF0EF11C4A
:101A3000C234D105C9F680E0CDB7DEB7EAE00C9438
:101A4000F9324F925F926F927F928F929F92AF92F4
:101A5000BF92CF92DF92EF920F931F93CF93DF93BA
:101A60002C016091F20666958091CE059091CF058C
:101A70000E940007182F87E6682E82E0782E93EEEA
:101A8000892E91E0992EA12CB12CF30181913F0177
:101A9000909105018923882369F1F401C081C05721
:101AA000DD0B8181282F2052330B6901CC9F9001DF
:101AB000CD9F300D300D1124CC9CC001CD9C900DDC
:101AC000900D1124820F931F0E940A07082F609126
:101AD000EF067091F0068091F106E12E9601AE01BD
:101AE000F20109950E947806462F672F282FC5011D
:101AF0000E94070AFFEFAF1ABF0A22E0820E911C74
:101B000032E4A316B10409F0C0CF80E0DF91CF9199
:101B10001F910F91EF90DF90CF90BF90AF909F906B
:101B20008F907F906F905F904F900895AF92BF928B
:101B3000CF92DF92EF920F931F93CF93DF9300D05A
:101B400000D0CDB7DEB76C016091F2066695669560
:101B50008091CE059091CF050E940007182F80E458
:101B6000810F0E944F0780588983812F0E944F0761
:101B700080588A8387E6A82E82E0B82E1C821B82BA
:101B8000F50181915F019091050189238823A9F0D6
:101B90006091EF067091F0068091F106E12E0B81C5
:101BA0002A814981F60109950E947806462F672F00
:101BB000282F8B819C810E94070A8B819C81019632
:101BC0009C838B8382349105D9F680E00F900F902F
:101BD0000F900F90DF91CF911F910F91EF90DF90B9
:101BE000CF90BF90AF900895A0E0B0E0EAEFFDE0A5
:101BF0000C94E032EC01FC01E959FD4F8081909199
:101C000005018923882349F1D090F0060091F1065F
:101C10001091EF06E12EF12C0E943A07482FC701E0
:101C20008C549F4F68E671E00E94B4328E199F0970
:101C300097FD039695958795959587954370612FA8
:101C4000489F600D11247D2D802F0E947806462F1D
:101C5000672F282FCE010E94070ACDB7DEB7E7E035
:101C60000C94FC321F93CF93DF93EC01FC01E959F4
:101C7000FD4F80819091050189238823B1F00E9456
:101C80003A07182F0E943A0720E8829FC0011124CA
:101C90007FE7790F612F8091F1060E947806462F29
:101CA000672F282FCE010E94070ADF91CF911F9145
:101CB0000895CF92DF92EF92FF921F93CF93DF931D
:101CC0007C016091F2066695669521E0620F08F44A
:101CD0006FEF8091CE059091CF050E940007182FDD
:101CE00087E6C82E82E0D82EC0E0D0E0F6018191D0
:101CF0006F01909105018923882391F06091EF068F
:101D00007091F0068091F106212F4C2FF701099573
:101D10000E947806462F672F282FCE010E94070ABF
:101D20002196C234D10511F780E0DF91CF911F9148
:101D3000FF90EF90DF90CF900895A0E0B0E0E3EA4D
:101D4000FEE00C94DD32EC012091F20631E0230F2D
:101D500008F42FEF30E040E050E06FEF7FEF80E0DD
:101D600090E00E94E933790197E6C92E92E0D92EDE
:101D700000E010E0B22EAF2CF60181916F0190913E
:101D800005018923882319F14091DD054150042E76
:101D9000000C550B47FF26C08B2D9A2D6091F20643
:101DA00021E0620F08F46FEF0E940007AC01609120
:101DB000EF067091F0068091F106FE0109950E94F0
:101DC0007806462F672F282FC8010E94070A0F5F49
:101DD0001F4F0234110581F680E0CDB7DEB7EAE08F
:101DE0000C94F932FA01E352FA4F818980130AC048
:101DF000FA01EE0FFF1FE352FA4F818D928D8E157F
:101E00009F0560F241505109C5CF982FE42FE27031
:101E10009093E900891308C0762F242F50E0E11138
:101E200011C091E0980FF4CF7091EC002091ED007B
:101E30005091F00021FD06C09F5F973049F78093D5
:101E4000E90008953091EB003E7F3093EB00309134
:101E5000ED003D7F3093ED003091EB003160309329
:101E6000EB007093EC002093ED005093F000209174
:101E7000EE0027FDE1CF0895A0E0B0E0E2E4FFE04E
:101E80000C94DF32C8EDD0E088818F7E8883E7ED47
:101E9000F0E080818160808384E082BF81E0809374
:101EA000220388818E7F888302EE10E0F801108281
:101EB0001092DA0081EEC82ED12CF60110828881B2
:101EC0008F77888388818068888388818F7D8883E5
:101ED00019BC10929C0610922103109208061092D1
:101EE000200390EEE92EF12CF70180818B7F808317
:101EF00088818160888342E060E080E00E94050F75
:101F0000F60180818E7F8083F801808181608083EB
:101F1000808188608083F70180818E7F80838881C3
:101F200080618883CDB7DEB7E8E00C94FB32E091A6
:101F300000079091FF0627E0E91302C080E00895B2
:101F4000AE2FB0E02E9FF0011124EF5FF84F3181EA
:101F5000361306C03081381303C03581341304C0F2
:101F6000FD013196E770E8CF81E008958091FE038E
:101F7000882341F1539A3BB1377F2BB128604FB78B
:101F8000F89488E393E0FC010196508168E02BB956
:101F9000000000C057FF3BB9550F000000C000C053
:101FA00000C03BB900C06A9591F753E08E3F95079A
:101FB00051F74FBF8FE594E00197F1F700C00000A3
:101FC0001092FE0308950F931F93CF93DF93EB01BD
:101FD0008A0190919C06943079F58093E9008FEF07
:101FE0009091E80095FD07C095ED9A95F1F70000F6
:101FF00081508111F5CF8091E80085FF1DC00E94BE
:10200000890C811114C08091E80085FD06C0809183
:10201000E8008E778093E800F2CF88818093F1000A
:10202000015011090115110511F02196ECCF809195
:10203000E8008E778093E800DF91CF911F910F9198
:102040000895CF93DF93D82FC92F48E050E0682F31
:10205000792F81E00E94E30F88E0ED2FFC2FABE2A7
:10206000B3E001900D928A95E1F7DF91CF91089549
:10207000BC0140E250E084E00E94E30F0895BC01FF
:1020800043E050E084E00E94E30F08959091FD0644
:1020900092FB222720F9281779F080FB92F9909380
:1020A000FD066091FC067091FD0684E090E00E94C0
:1020B000E33382E00E94240408951F93CF93DF93BB
:1020C000C62F122F632F8430D8F4CA30C8F448309A
:1020D000B8F490E1C99FE001112450E0440F551F6E
:1020E000C40FD51F90EA899FC00DD11D1124CE01C8
:1020F00089960E94C533612FCE018A960E94C5330E
:10210000DF91CF911F9108951F93CF93DF93962F67
:10211000122F632F8430A0F4911112C094E0899F94
:10212000E0011124C755DD4FCE01442369F00E9420
:10213000C53381E090E0612F8C0F9D1F0E94C53355
:10214000DF91CF911F91089502960E94C53383E0DD
:1021500090E0F1CF8F929F92BF92CF92DF92EF9259
:10216000FF920F931F93CF93DF939EE9E92E94E0A4
:10217000F92EC12CD12CC0E04601D0E014C0F801EA
:10218000259134914B2D6D2F8C2F0E945D100E5F89
:102190001F4FB39488E0B812F2CF88E0880E911CEC
:1021A000DF5FDA3039F08401000F111F025E1D4F2E
:1021B000B12CE5CFF7012591349141E060E08C2FFF
:1021C0000E948410F70132962591349140E060E03E
:1021D0008C2F0E94841084E0E80EF11CCF5F80E514
:1021E000C80ED11CC43009F0C7CFDF91CF911F9129
:1021F0000F91FF90EF90DF90CF90BF909F908F90C6
:102200000895CF93DF93C9EBD2E060E0CE010E9446
:10221000C5332196C11584E0D807B9F7DF91CF9176
:102220000895882381F063E285E290E00E94C5333F
:1022300062E186E290E00E94C53365E187E290E0CA
:102240000E94C53308956FEF85E290E00E94C53388
:102250006FEF86E290E00E94C5336FEFEFCF80E032
:102260000E94111160E088E290E00E94C5330E9454
:10227000AA100E94011181E00E94111108950F938C
:102280001F93CF93DF93843030F56A3020F54830C8
:1022900010F520E1629FE001112450E0440F551F2A
:1022A000C40FD51F30EA839FC00DD11D1124CE016C
:1022B00089960E94A733082F10E0102F0027CE0127
:1022C0008A960E94A7339801282BC901DF91CF91EC
:1022D0001F910F91089580E090E0F8CF0F931F9326
:1022E000CF93DF93843048F5611127C024E0829FAB
:1022F0008001112407551D4FC8014423A1F00E94FD
:10230000A733C82FD0E0DC2FCC2781E090E0800FEE
:10231000911F0E94A7339E01282BC901DF91CF9105
:102320001F910F91089502960E94A733C82FD0E005
:10233000DC2FCC2783E090E0EACF80E090E0EECF86
:10234000462F672F7A3038F4483060F4843050F4E8
:102350000E943F1108957D3F41F4411103C041E0C7
:10236000843048F080E090E008957C3FD9F7411137
:10237000F9CF8430B8F760E00E946E110895A0E0B4
:10238000B0E0E5ECF1E10C94E0327C010091FA065A
:102390008091F906082BC3E0D0E010E0C8010C2EB4
:1023A00002C0959587950A94E2F780FD09C02197B0
:1023B000A8F7D12C8D2DCDB7DEB7E7E00C94FC3219
:1023C000DC2EB7018C2F0E94A0110E945D050197A1
:1023D00071F3F0CF0F931F93CF93FC0185810081A0
:1023E0001181882391F0662381F0C8010E94BF11FA
:1023F000C82F682FC8010E94C703B8018C2F0E9404
:10240000A011CF911F910F910895C8010E94E00380
:10241000C82FF3CFCF93DF93D82FC92F0E94BF11BE
:102420006D2F7C2F0E94A0110E945D05DF91CF913E
:102430000895FC0184818823A1F0808191810E940C
:102440000A12282F92959F70963091F060F4925F57
:102450009F70923030F481E0203F79F030F4283ED4
:1024600030F080E004C09A5FF3CF243FD1F70895A5
:1024700081E0283E18F0213FF9CF0895089585E2C4
:1024800090E00E94A733833289F486E290E00E94B4
:10249000A733823159F487E290E00E94A73391E09C
:1024A000853109F090E0892F8170089580E0FCCF9C
:1024B00080911501882359F18091FC0687FF27C080
:1024C0000E943C048093F30240E250E06FE976E022
:1024D00082EF92E00E946833892BC1F080E2E2EF44
:1024E000F2E0AFE9B6E001900D928A95E1F7E09154
:1024F000BF06F091C006309749F086E08093F20263
:102500000480F581E02D82EF92E0099508950E9404
:102510003C048093120348E050E061EC76E082E1F5
:1025200093E00E946833892B89F388E0E2E1F3E0CD
:10253000A1ECB6E001900D928A95E1F7E091BF061B
:10254000F091C006309711F30280F381E02D82E113
:1025500093E0DBCFCF93C82F8823C9F08238C9F42A
:102560000E940A0B81FD13C089E30E94630B0E9445
:1025700058122FEF37EE83E0215030408040E1F7D2
:1025800000C0000089E30E94970B0E945812CF916F
:1025900008958338A1F40E940A0B80FDF8CF83E5EB
:1025A0000E94630B0E9458129FEF21EE34E091507D
:1025B00020403040E1F700C0000083E5E4CF8438DC
:1025C000A1F40E940A0B82FDE2CF87E40E94630B14
:1025D0000E9458128FEF91EE24E0815090402040ED
:1025E000E1F700C0000087E4CECF8CEF8C0F813A7A
:1025F00090F580911501882301F18091FC0687FFF9
:102600001CC0EC2FE695E695E695F0E0EE50FD4F08
:10261000828190E04C2F477021E030E002C0220F11
:10262000331F4A95E2F782239323892B81F08C2F65
:102630000E94970B0E9458120AC0E4E1F3E08AE17D
:1026400093E02191C21799F38E179F07D1F78C2F32
:102650000E94630B9ACF80E28C0F883068F4C770B9
:1026600081E090E001C0880FCA95EAF7C091F606B4
:10267000C82BC093F60689CF8BE58C0F833038F4D6
:102680002C2F2452330BC9010E94170B80CFC85A3C
:10269000CB3108F07CCFEC2FF0E0EE0FFF1FE754BA
:1026A000FD4F808191810E943D0B71CF882309F4F9
:1026B0004DC0823879F40E940A0B81FF47C089E33C
:1026C0000E94630B0E94581289E30E94970B0E949C
:1026D00058120895833859F40E940A0B80FF36C0BF
:1026E00083E50E94630B0E94581283E5EECF843885
:1026F00059F40E940A0B82FF29C087E40E94630BF1
:102700000E94581287E4E1CF9CEF980F913AE8F2CB
:1027100090E2980F983050F4877091E001C0990FC3
:102720008A95EAF7892F0E946204D1CF9BE5980F22
:10273000933028F480E090E00E94170B0895885AA7
:102740008B3120F480E090E00E943D0B08950F93C0
:102750001F93CF93C82F00E010E0893311F400E5F8
:1027600010E08C2F0E94AA120115110539F48C2F4C
:102770000E945613CF911F910F9108958FE99FE00A
:102780000197F1F700C0000001501109EDCF0F9340
:10279000CF93DF93C62FD22F9091EB06911128C0D3
:1027A0009091EA06911110C0811149C0862F0E94B4
:1027B0005613002309F453C081EE0E94AA128D2FF4
:1027C0000E94561381EE4CC0882361F0411103C072
:1027D00085EE0E9456138C2F0E94AA12DF91CF9192
:1027E0000F910895411138C085EE0E94561315C00F
:1027F000882351F04111EFCF81EE0E945613809152
:10280000EA06882341F3E4CF411126C081EE0E94FD
:1028100056138091EA068111E7CF8C2F0E94561340
:102820008091EB06882319F081EE0E94AA12809114
:10283000EA068823A1F085EE0E94AA1210C00023A8
:1028400019F081EE0E94AA128FE39CE90197F1F73B
:1028500000C000008D2FC0CF8C2F0E9456138D2FEB
:102860000E945613BBCF882339F09091F606892B2E
:102870008093F6060E9458120895882321F00E9442
:1028800062040E94581208950F931F93CF93DF9311
:10289000C62FD42F122F8823A9F06093EC060E9434
:1028A000C40B90931E0380931D03C77081E001C089
:1028B000880FCA95EAF70E943314DF91CF911F91D8
:1028C0000F9108958091EC06681332C080911D032A
:1028D00090911E030E94ED0B883C910548F5CD13A5
:1028E0000CC0812F0E94A713D77081E001C0880F10
:1028F000DA95EAF70E943D14E0CFC77001E0802F1F
:1029000001C0880FCA95EAF70E943D1480E28D0F3E
:10291000883050F48D2F877001C0000F8A95EAF738
:10292000802F0E943314DDCF812F0E94A713C5CFC3
:10293000C77081E001C0880FCA95EAF7DBCF10921B
:10294000F606809115018823C1F08091FC0687FF6F
:1029500014C0E4EFF2E08EE1DF011D928A95E9F701
:1029600080E090E00E94170B80E090E00E943D0B19
:102970001092FE060E9458120895E4E1F3E086E00A
:10298000EBCF0E949F142FEF84E39CE02150804006
:102990009040E1F700C0000088E19AE00FB6F8949B
:1029A000A895809360000FBE90936000FFCFA8E0D1
:1029B000B0E0EDEDF4E10C94D9326C01DC01149639
:1029C0008C91882309F4BEC061E0C6010E94EA111F
:1029D0008C01F6018581882309F450C1C8019757FD
:1029E00080389105A0F0013E110509F451C1053E62
:1029F000110509F4BEC18091EB069091120391FF7D
:102A0000BCC18111BFC181EE0E945613BBC1003110
:102A100008F087C08FEF93E00E94A733811181C037
:102A200059EBE52E52E0F52E01114AC01A821982A7
:102A3000FE01339686E0DF011D928A95E9F74AE0B0
:102A4000642E5701BFEFAB1ABB0AC7010E94A73320
:102A500089831A82882309F464C0813009F076C022
:102A600087010E5F1F4FC5010E94A7338A83882309
:102A700009F457C09FEF980F933088F5E3E0EE0E0E
:102A8000F11CC8010E94A7338B83882309F449C035
:102A90001C828E010F5F1F4FD8018C91882389F211
:102AA000813009F08EC011969C91119712968C91ED
:102AB000913009F04DC00E5F1F4F0E94A7134EC00A
:102AC000E114F4E0FF0669F1C7010E94A733970102
:102AD0002F5F3F4F79018111F3CF0150A5CF843093
:102AE000B9F432E0E32EF12CC8010F5F1F4F0E94B2
:102AF000A733E1E0F0E0EC0FFD1FEE0DFF1D80833A
:102B0000882379F08C3731F4FE01EE0DFF1D12821F
:102B10007801BFCFFFEFEF1AFF0A27E0E216F104BA
:102B200019F78091FB068770882361F0D60115960E
:102B30008C91882339F08091FD0682FF03C082E0EA
:102B40000E9424042896EEE00C94F5327501A1CF82
:102B5000923039F40E5F1F4F0E94AA120F5F1F4F71
:102B60009BCF933029F40E5F1F4F0E945613F6CF70
:102B7000943019F00F5F1F4FF1CF0E5F1F4F20E011
:102B800030E0A8014F5F5F4F8053990B8A30910569
:102B900060F02115310511F38FE99FE00197F1F7FE
:102BA00000C0000021503109F4CF629EB001639E45
:102BB000700D11249C01260F371FF80181818A01B5
:102BC000E0CFE82FF0E0E252FA4F7490282F2695DC
:102BD0002695269530E0F901E253FA4F94918770DB
:102BE000F901E254FA4FA490B12C082E02C0B5941A
:102BF000A7940A94E2F7A1E0AA22BB24F901E255C6
:102C0000FA4F8490912C082E02C0959487940A94D0
:102C1000E2F7B1E08B229924292F30E002C03595EC
:102C200027958A95E2F720FD0BC0AB28E9F4872DA4
:102C30000E94A7138114910409F490CF8CE23DCF38
:102C400081EE0E94AA12AB2829F4872D0E94A713B7
:102C500081EE11C086EE0E94AA12872D0E94A71352
:102C600086EE0E945613F4CF86EE0E94AA12872D9C
:102C70000E94A71386EE0E945613DCCF013E110579
:102C800069F0053E110509F0B6CE1092EA0608C0BB
:102C900081E08093EB061092EC0602C01092EB06E6
:102CA000F6018581E080F180882309F4CBC2C70159
:102CB0000E94BF11182F682FC7010E94C703B701D8
:102CC000812F0E94A0110E945D058C01D6011596EE
:102CD000BC9015971696AC90A2942FE0A2228091FA
:102CE000FB068770882301F1EB2CBB20F1F0812FCC
:102CF000807F803461F080E2800F8830A8F0812FDF
:102D0000807E803221F4023078F0AA2069F0809130
:102D1000FD0682FF09C082E00E9424048091FB0628
:102D20008770EE24E3948111E12C812F82958F70BE
:102D3000883009F47BC308F0AAC2843008F087C247
:102D4000B12FBF70FB2E823008F4B2C2107F103258
:102D500019F0F29480EFF822002309F4E0C2013068
:102D600009F429C3BB2009F435C3AA2009F4F5C22C
:102D7000B5C281E08093EA068ECF882319F081EEF8
:102D80000E94AA128091EA069091120395FF06C054
:102D9000811109C085EE0E94561305C0882319F0E1
:102DA00085EE0E94AA12F6018581F8017F97E7312E
:102DB000F10508F064C0E25BFB4C0C94C83200E003
:102DC0002FE130E040E06FE270E00E94C713A9CE2F
:102DD00000E023E230E040E06EE270E0F6CF00E099
:102DE00024E230E041E063E270E0EFCF00E025E272
:102DF00030E041E064E370E0E8CF00E026E230E05C
:102E000041E065E270E0E1CF00E027E230E041E040
:102E100066E270E0DACF00E02DE230E041E067E802
:102E200070E0D3CF01E02DE230E041E063E370E0F9
:102E3000CCCF00E020E330E041E060E370E0C5CFBC
:102E400000E022E330E041E062E370E0BECF00E06A
:102E500027E830E041E069E870E0B7CF00E023E325
:102E600030E040E0C7CF01E024E230E041E06FE134
:102E700070E0ABCF01E02FE230E041E0ADCFF801F0
:102E8000E851FC47E730F10508F5EB59FB4C0C9491
:102E9000C83226E241EE61EE0E94441442CE27E29F
:102EA00045EE65EEF9CF26E241EE60EEF5CF27E282
:102EB00045EE64EEF1CF26E241EE62EEEDCF27E281
:102EC00045EE66EEE9CF28E241E0EBCFD60115965C
:102ED0008C9181110DC00631BCE71B0709F0F7C0CA
:102EE0008091ED068111F1C089E20E94970B19C013
:102EF0001092EC06C80190578397B0F00631ECE7CA
:102F00001E0709F040C18091F6068A7A91E081118E
:102F100001C090E09093ED068111D5C089E20E9436
:102F2000630B0E945812FDCD84E090E00E94AF3305
:102F30009093FD068093FC06F801E150F047E232E1
:102F4000F10520F4E459FB4C0C94C8328091FC0646
:102F500081608093FC066091FC067091FD0684E020
:102F600090E00E94E3330E949F14DBCD8091FD0628
:102F700088608093FD06EFCF8091FC068260E9CFE8
:102F80008091FC068460E5CF8091FC068860E1CFEB
:102F90008091FD068160EDCF8091FD068260E9CFD2
:102FA0008091FC068061D5CF8091FC068062D1CFF4
:102FB0008091FC068064CDCF0E949F148091FC0616
:102FC0008068C7CF8091FC068C60C3CF8091FD06DE
:102FD0008360CFCF8091FC068E7FBBCF8091FD06B2
:102FE000877FC7CF8091FC068D7FB3CF8091FC0691
:102FF0008B7FAFCF8091FC06877FABCF8091FD06A2
:103000008E7FB7CF8091FD068D7FB3CF8091FC0678
:103010008F7E9FCF8091FC068F7D9BCF8091FC0699
:103020008F7B97CF0E949F148091FC068F7791CF62
:103030008091FC06837F8DCF8091FD068C7F99CF98
:103040008091FC0682FB992790F921E0922790FB62
:1030500082F990FB83F97DCF8091FD06982F9095A2
:1030600091708E7F892B90FB81F983CF9091FC0624
:10307000892F8F7B96FF80646CCF0E949F14909164
:10308000FC06892F97FB87F9805863CF61E08EE0BB
:1030900090E00E94C5335FCF60E0F9CF9091FC06CD
:1030A000892F8F7E94FF806154CF9091FC06892FE9
:1030B0008E7F90FF81604DCF9091FD06892F877F95
:1030C00093FF886056CF85E32ACF85E30ECF8091AA
:1030D000F6068272F801E052F847E531F10508F092
:1030E0007BC0E257FB4C0C94C8328091EE0691E015
:1030F00089278093EE061092160181E00E94EF0965
:1031000010CD43E45AE067E37AE00E94030B09CD57
:1031100047E35AE063E47AE0F8CF4BE65AE060E632
:103120007AE0F3CF40E65AE06BE67AE0EECF44E88F
:103130005AE066E77AE0E9CF46E75AE064E87AE0E9
:10314000E4CF40EA5AE062E97AE0DFCF42E95AE0B0
:1031500060EA7AE0DACF4AEB5AE06EEA7AE0D5CF5D
:103160004EEA5AE06AEB7AE0D0CF61E081E00E945B
:103170001A0AD7CC61E085E0FACF61E08DE0F7CFA5
:1031800061E082E1F4CF0737FCE71F0791F182E0AD
:1031900008372CE7120771F10A358CE7180709F494
:1031A0004DC090F50130ACE71A0709F445C0033073
:1031B000BCE71B07D9F101151C4709F071CD0E942E
:1031C0009F143FEF44E38CE0315040408040E1F7F2
:1031D00000C000000E94FC0B07373CE7130791F08A
:1031E00082E008374CE7140709F05ACD0E946003CB
:1031F00003C081E00E94540343E062E081E00E944A
:10320000F9038FCC81E0F2CF0B35FCE71F07C1F04B
:103210000C351C4709F044CD8091FD0682FB8827C0
:1032200080F991E089270E9446103ACD6FEF7FEF39
:1032300080E090E00E94E3330E94C11481E0F3CF6C
:1032400080E0F1CFC7010E94E003182F38CD843011
:1032500009F4D1C0EE20B1F08091FB0680FD12C0D0
:10326000D60115961C928695869586950E945403E4
:10327000C6010E94D7148091FB0686958695869597
:103280000E94600360E0C6010E94EA115BCC8930B5
:1032900009F43BC18A5F8F708230E0F6023F09F08B
:1032A00045C1812F8F71B1103EC10E945403EBC004
:1032B000103118F0F29490EFF922BB20B9F0FF2002
:1032C00069F080E2800F883010F0011109C0809110
:1032D000F6068F298093F6060E945812802F2FC081
:1032E0008091FE068F298093FE06F6CF802F0E94E4
:1032F0005613FF2009F4AECF80E2800F883010F023
:10330000011104C08F2D0E94620406C0F0948091C8
:10331000FE068F218093FE060E9458129BCF80915B
:10332000FD0682FD16C0BB2069F0FF2039F08091B8
:10333000F6068F298093F6060E94581280E00E94BC
:10334000AA1288CF80E00E945613FF2009F482CF92
:10335000D9CFBB20A1F0A11004C08F2D0E9433143F
:1033600079CFE1E0AE1276CF8091F7069F2D9823BA
:10337000F91609F46FCF8F298093F7066BCFA11050
:1033800069CF8F2D0E943D149091F7068F2D8923D0
:10339000882329F08F2D809589238093F7068091CB
:1033A000F8069F2D9823992309F454CFF094F8221E
:1033B000F092F8064FCFBB2029F0F5E0FA1508F49B
:1033C00049CFCBCF24E02A1508F444CF8F2D0E949B
:1033D0003D1440CFAA20D1F3093349F43FEF47EE23
:1033E00083E0315040408040E1F700C00000802F72
:1033F0000E9456132FCF812F869586958370882340
:1034000061F0813009F026CFC8019370B11002C07D
:1034100080E090E00E943D0B1DCFC8019370B11079
:1034200002C080E090E00E94170B14CF812F8370C0
:10343000811134C0B11027C0402F42954695477086
:10344000440F440F802F8F70042E01C0880F0A9400
:10345000EAF70071002341F02FE030E001C0220FB5
:103460004A95EAF7022F00951695169513701230BB
:1034700081F0133061F02091F906113039F0802B82
:1034800082230E944E030E940A0BE4CE822B802BE3
:10349000F8CF802B9091F9068927F3CFBB2051F10B
:1034A00010FFF1CF402F429546954770440F440FCF
:1034B000802F8F70042E01C0880F0A94EAF70071E4
:1034C000002341F02FE030E001C0220F4A95EAF7D7
:1034D000022F0095169516951370123089F013304F
:1034E00069F02091FA06113041F0802B82230E946E
:1034F0005103C9CF823038F2D5CF822B802BF7CF42
:10350000802B9091FA068927F2CF1F70BB2039F0EB
:10351000812F0E945403802F0E943314B4CF802F38
:103520000E943D14812F0E946003ADCF033F70F4D1
:10353000003FB9F0013FB9F1BB2009F45BC0AA20FC
:1035400009F455C0802F0E94AA129DCF033FD9F0E5
:10355000043F29F1B110F3CFA1105AC0812F8F7110
:10356000E2CFBB2069F094E09A1508F48CCF1F716C
:1035700081E090E0012E01C0880F0A94EAF7C1CFE4
:10358000A5E0AA16F2CF80E0BB2009F4B0CF1F71EE
:1035900081E0012E01C0880F0A94EAF7A8CF80913C
:1035A000FD0682FD06C0812F8F71BB2009F4BBCFC1
:1035B0007CCEBB2089F01F71812F0E945403809123
:1035C000FD0682FF07C0B8E01B9FC0011124836085
:1035D0008093FB06812F69CE81E00E942404E1E004
:1035E000EA1508F050CF82E00E9424044CCF812FCE
:1035F0008F715BCEAA2009F4B1CF093349F4FFEFF4
:1036000027EE33E0F15020403040E1F700C00000E9
:10361000802F0E94561337CF80913F07803178F476
:1036200080913E07882359F0E09100072091FF0622
:1036300030913A074091390757E02E1301C00895A1
:103640006E2F70E05E9FF0011124DF01AF5FB84F75
:1036500014968C911497882361F111968C9111978F
:10366000831327C08C91841324C015968C911597D1
:1036700081111FC012968D919C91A0913B07B09132
:103680003C078A1B9B0B883C910598F480913F076F
:103690008F70806180933F07E95FF84F80818F7062
:1036A0008061808389E397E00E94D7140E941A0406
:1036B0000895FB013196E770C0CFADE0B0E0E3E6DE
:1036C000FBE10C94D9328C0186E0F801DE011896FA
:1036D00001900D928A95E1F7F8017080F580A28043
:1036E000B380848199E3892E97E0992E60903D07FD
:1036F000611018C0882399F0FF2009F413C1C80194
:103700000E941912882309F40DC187E0F801A9E38A
:10371000B7E001900D928A95E1F70E940C1BFF24FF
:10372000F39453C0D0903E0720913B0730913C0763
:10373000A501421B530BDD2009F4C4C0483C5105D0
:1037400008F07AC0882359F380913A07C180E0904D
:103750003F07FFE0FE1508F459C0C81215C080915C
:103760003907871111C0F1104BC08E2D8F70806109
:1037700080933F0789E397E00E94D71480913F0729
:10378000F8018683F12C21C0F1103AC040E06C2D85
:10379000872D0E94970F40E06C2D872D0E94970F78
:1037A000F82E8111EFCF888599850E940A12292F62
:1037B00022952F70903470F49F702230A0F09923DE
:1037C000B1F0F8019681903190F48F2D2D96EEE0B6
:1037D0000C94F5322A5F2F70223068F0C8010E94E5
:1037E000D714FD2CF2CF992311F0882371F3805E5A
:1037F000883058F3F3CF803F40F3815F8230F9CFB8
:1038000080913F07816080933F07BCCFC8123CC0C6
:1038100080913907871138C0F11036C0F801E6826F
:10382000C8010E94D71487E0F801A9E3B7E001902E
:103830000D928A95E1F773CFE0903F07FFE0FE1508
:1038400050F089E397E00E94D71487E0F4011192C9
:103850008A95E9F797CF882309F461CF90913A07C9
:10386000F8018181981310C08091390787110CC02D
:10387000F1100AC0E682C8010E94D71487E0F40163
:1038800011928A95E9F74BCFC8010E94191288233B
:1038900009F448C0FF2009F445C080913F078032F9
:1038A00008F433CF8091390790913A079A8389833E
:1038B000BC82AB826D821E82EF82CE0101960E9495
:1038C000D71423CF483C510508F0BFCF882309F413
:1038D00026CFFF2039F190913A078181981318C0C3
:1038E00080913907871114C080913F0780FD9BCFDD
:1038F000803108F498CF8683807F803F09F490CF91
:103900008681982F907F905F8F70892B868388CFD8
:10391000C8010E9419128111F8CE80913F07816081
:1039200080933F07C8010E94D714F9CEABE1B0E005
:10393000ECE9FCE10C94E4324E8B5F8B688F798F5D
:103940008A8F9B8F91111092FE061D8A86E0FE01E0
:103950007696DE011F9601900D928A95E1F78B898C
:10396000882329F061E0CE010F960E94EA1187E0DA
:10397000FE013F96DE01189601900D928A95E1F7BF
:10398000CE0108960E945D1B81112BC087E0FE01CD
:103990003896DE01119601900D928A95E1F72091FB
:1039A000FF06409100078C858823D9F030E0C901DB
:1039B00001968770992750E084179507E9F097E002
:1039C000929FD001939FB00D1124AF5FB84FFE01BD
:1039D000319601900D929A95E1F78093FF060E942F
:1039E0001A0417E0809100079091FF06891312C016
:1039F0006B96E3E00C9400330E949F141092FF0634
:103A00001092000787E0E9E3F7E0DF011D928A9555
:103A1000E9F7E7CF189FC00111248F5F984F0E94EC
:103A20005D1B882329F38091000790E00196877041
:103A3000992780930007D6CFA6E0B0E0E2E2FDE14F
:103A40000C94E3320E94C40B8C0180919D069091EE
:103A50009E068017910779F019821A820E94C40B82
:103A6000BC0149815A8180E090E00E94961C10932D
:103A70009E0600939D062696E4E00C94FF32AAE28F
:103A8000B0E0E5E4FDE10C94E43283E293E0FC0174
:103A900001962091F100208323E08B329207B9F741
:103AA00080912403893009F456C0C8F4823009F4A7
:103AB000B3C0833009F482C0813071F18091E80095
:103AC00083FFE7C080912303909124039A3008F08C
:103AD000E0C0E92FF0E0ED55FB4C0C94C8328A3081
:103AE00009F489C08B3051F780912303813231F77B
:103AF0008091270390912803892B01F78091E8009A
:103B0000877F8093E8000E946A0C80912503809350
:103B100015010E949F14D2CF80912303813A71F640
:103B20008091E800877F8093E8008091270390913F
:103B30002803892B61F060E080E090E070E00E9453
:103B4000110C8091E8008B778093E800B7CF68E094
:103B50008BE293E0F3CF80912303813209F0AECF63
:103B600080912703909128038D7F892B09F0A6CFA0
:103B70008091E800877F8093E8008091E80082FFD1
:103B800018C09091F3008091F200029731F4809177
:103B9000F100813011F0863021F48091F1008093A2
:103BA00033038091E8008B778093E8000E946A0CD1
:103BB00085CF80919C068111E0CF80CF8091230337
:103BC000813A09F07BCF8091270390912803892BBC
:103BD00009F074CF8091E800877F8093E80080919E
:103BE000E80080FFFCCF809115018093F100809167
:103BF000E8008E77D9CF80912303813209F05ECF20
:103C00008091E800877F8093E8000E946A0C809191
:103C1000260380931F0352CF80912303813A09F03A
:103C20004DCF8091E800877F8093E8008091E80085
:103C300080FFFCCF80911F03D8CF803889F0823875
:103C400041F5809127038F70873018F58093E90044
:103C50008091EB0085FB882780F91092E90006C06F
:103C60008091200390910806911182609091E80064
:103C7000977F9093E8008093F1001092F10080917B
:103C8000E8008E7723C0811116C080912503813012
:103C900011F18091E80083FF0AC08091E800877FDE
:103CA0008093E8008091EB0080628093EB00AA96FD
:103CB000E3E00C940033823061F780912503882380
:103CC00089F01092E9008091E800877F8093E800F6
:103CD0000E946A0CDECF81E0933009F080E080938F
:103CE0000806EFCF809127038F702FEF280F263023
:103CF00080F68093E9002091EB0020FFE2CF933023
:103D000031F48091EB0080628093EB00DACF9091E8
:103D1000EB0090619093EB0021E030E0A90102C03C
:103D2000440F551F8A95E2F74093EA001092EA008B
:103D30008091EB008860E8CF8111ABCF1091250313
:103D40001F778091E3008078812B8093E30080913E
:103D5000E800877F8093E8000E946A0C8091E80069
:103D600080FFFCCF8091E30080688093E30083E0D4
:103D7000111101C082E080939C068BCF8058823065
:103D800008F087CF40912503509126034C3D83E0F6
:103D9000580799F583E08A838AE289834FB7F894BC
:103DA000DE01139620E03EE051E2E32FF0E0509375
:103DB0005700849120FF03C082958F703F5F8F7002
:103DC0008A30C8F0895C90E08D939D932F5F2431F9
:103DD00061F74FBF8091E800877F8093E8006AE237
:103DE00070E0CE0101960E94110C8091E8008B7763
:103DF0008093E8004ECF805DE6CF809127039091BD
:103E00002803252F33272330310509F44AC078F5DC
:103E10002130310509F479C08BE590E0EFE7F1E05E
:103E20002230310509F035CF2091E800277F20931B
:103E3000E8002091290330912A038217930708F4A0
:103E40009C0140E02115310509F064C0411162C0B8
:103E50008091E80082FDC9CF80919C06882329F2D9
:103E6000853019F28091E80083FFF2CFBECF213276
:103E7000310509F43BC02232310509F00ACF833005
:103E8000910508F006CFFC01EE0FFF1FE35EFE4F29
:103E90000190F081E02D865E9E4FDC018C9190E0D8
:103EA00011C0CA019927413089F082309105B1F0E3
:103EB000892B09F0EECEEAE1F2E0E4918E2F90E05A
:103EC000EAE1F2E0009709F4E4CEAECFEEEFF1E0E4
:103ED000E4918E2F90E0EEEFF1E0F4CFECEEF1E024
:103EE000E4918E2F90E0ECEEF1E0ECCF8330910581
:103EF00008F0CFCEFC01EE0FFF1FED5DFE4F0190ED
:103F0000F081E02D89E090E08FCF82E190E0EAED52
:103F1000F1E08ACF80919C06882309F466CF853032
:103F200009F463CF8091E80083FD5FCF8091E800C2
:103F300082FD8ECF8091E80080FF84CF9091F300C6
:103F40008091F2002115310519F08830910550F06B
:103F500041E0089709F040E08091E8008E77809377
:103F6000E80070CF44914093F1003196215031091F
:103F70000196E8CF803809F08CCE8091E800877FE9
:103F80008093E800809121038093F10078CE811125
:103F900080CE10912503123008F07BCE8091E8008E
:103FA000877F8093E800109321030E946A0C1123FD
:103FB000D1F084E080939C0642E061EC81E00E94B5
:103FC000050F42E261EC84E00E94050F42E261ECE1
:103FD00082E00E94050F42E260EC83E00E94050F40
:103FE00080919C0656CE8091E30087FDE2CF81E070
:103FF000E1CFA8E0B0E0EFEFFFE10C94E53266EE30
:104000007EEF80E090E00E94E33360E082E090E0A9
:104010000E94C53381E08093F90661E083E090E07F
:104020000E94C53360E074E184E090E00E94E333D5
:1040300060E086E090E00E94C5336FEF87E090E09B
:104040000E94C53340E050E0BA0188E090E00E9451
:10405000D73360E084E290E00E94C53360E087E1FE
:1040600090E00E94C53360E08CE090E00E94C53390
:1040700060E08DE090E00E94C53319821A821B82B5
:104080001C821D821E821F82188648E050E068E173
:1040900070E0CE0101960E94B53340E050E0BA01D5
:1040A00080E290E00E94D73380E00E9411110E94CC
:1040B0002F1140E050E0BA018FE090E00E94D7332A
:1040C00040E050E0BA0183E190E00E94D7332896A7
:1040D000E2E00C94013348E050E068E170E08EEEDD
:1040E00096E00E94B5331092DC050895EEEEF6E0FE
:1040F00085E380838091170190911801A0911901A7
:1041000081839283A3838FE784838FEF85830E94CB
:104110006B200895A0E0B0E0E0E9F0E20C94D73223
:10412000C2ED4C2EC5E05C2E01E811E0912CEE248E
:10413000E394F12CD2017D902D011E92E80189912A
:104140008E01E82FE295EF70F0E021A18F70A701BA
:1041500002C0440F551F8A95E2F7CA01242B21A300
:1041600022A1842E8094282122A350EA5A95F1F7A7
:104170006BE871E06B0140E050E0E60169906E0190
:10418000262D22952F70205E30E0E901A8803C9119
:10419000B12C262D2F7002C0B594A7942A95E2F772
:1041A00020E0A0FC06C02E2D042E01C0220F0A9490
:1041B000EAF7232B2C934F5F5F4F48305105E9F608
:1041C00091A1892281A292A1892B82A381E09C9155
:1041D000971101C080E0982AD7ED4D16D5E05D0615
:1041E00009F0A8CF20E030E001E010E0B6E8EB2EC7
:1041F000B1E0FB2EFB018191BF01E82FE295EF704A
:10420000F0E041A18F70D80102C0AA0FBB1F8A95B0
:10421000E2F7CD014A2B41A352A14A2F40955423E6
:1042200052A3B0EABA95F1F7D801022E01C0AA0F45
:104230000A94EAF78A2E80945A2FC7EDD5E0A1E8B8
:104240004A2EA1E05A2EA12CB990D2017D902D01C9
:10425000C72CC2949FE0C922B0E2CB0ED12CD6016C
:10426000CC90D12CB72DBF7002C0D594C794BA950D
:10427000E2F77B2CC0FC2BC0752A6E01A1E0CA1AA4
:10428000D108D6017C92B71411F0AA24A394E414A7
:10429000F504D1F691A1492341A392A1892B82A3D0
:1042A0009A282F5F3F4F2830310509F0A3CF99207E
:1042B00081F081E080931C030E94C40B90931B0348
:1042C00080931A03CDB7DEB7E0E10C94F332782087
:1042D000D4CF80911C038823A9F380911A03909175
:1042E0001B030E94ED0B059768F34AE050E062ED76
:1042F00075E082E996E00E946833892B49F08AE0F4
:10430000E2EDF5E0A2E9B6E001900D928A95E1F7C1
:1043100010921C03D7CFEF92FF920F931F93CF936E
:10432000DF93EC01162F0E94583327E0E22EF12C88
:10433000B7010E94B432FC01EE0FFF1FE75DFE4F94
:1043400000810E945833B7010E94B432FC01EE0F85
:10435000FF1FE75DFE4FF180FE01E959FD4F8081AF
:10436000909105018923882359F0602F7F2D812F9B
:104370000E947806462F672F282FCE010E94070A39
:10438000602F7F2D812FCDB7DEB7E6E00C94FD3294
:10439000AEE0B0E0EEECF1E20C94D532182F809153
:1043A0000801811325C02091EE06237030E0409172
:1043B000070150E081E02417350709F480E081709F
:1043C000809306018091F30690910501981739F0CA
:1043D0008093050140E060E080E00E940A0A163206
:1043E00008F049C0E12FF0E0E355FB4C0C94C832D3
:1043F00081E0E5CF80910601882311F40C94512AC5
:1044000040E060E080E00E940A0A809104018F5F32
:104410008093040182E08093160180910601882335
:1044200011F40C94562A2E96E2E10C94F13260912C
:10443000EF067091F0068091F1060E947806F62E44
:10444000E72ED82E07E6A02E02E0B02E00E010E006
:10445000D5018D915D01909105018923882331F06B
:104460002D2D4F2D6E2DC8010E94070A0F5F1F4F83
:104470000234110569F7809104018F5F8093040174
:1044800082E080931601CFCF1091EF06C090F00626
:104490000091F106612F7C2D802F0E947806F62E68
:1044A000E72ED82E8091F206612F680F7C2D802F89
:1044B0000E947806C62EB72EA82E17E6812E12E08F
:1044C000912E00E010E0F40191914F0180910501DF
:1044D0008923882359F02A2D4C2D6B2D90FD03C084
:1044E0002D2D4F2D6E2DC8010E94070A0F5F1F4F03
:1044F0000234110541F7BFCFC090F0069090F1064D
:104500002091F206F0E4DF2E3D2D329F312D112453
:10451000D32EA7E6AA2EA2E0BA2EB4EEEB2EB1E07F
:10452000FB2E00E010E0D5018D915D019091050119
:104530008923882399F0F701808182958F7060919B
:10454000EF068D9D600D11247C2D892D0E9478062B
:10455000462F672F282FC8010E94070A0F5F1F4FA1
:10456000F2E0EF0EF11C02341105E9F684CF9090D1
:10457000F0068090F1062091F20600E4029F012DE2
:10458000112477E6A72E72E0B72EE3EECE2EE1E0FF
:10459000DE2EE12CF12C10E0D5018D915D01909182
:1045A000050189238823C9F0F6012081209FC001DD
:1045B000219F900D112465E0959587956A95E1F707
:1045C0006091EF06680F792D882D0E947806462F9E
:1045D000672F282FC7010E94070AFFEFEF1AFF0A73
:1045E00022E0C20ED11C32E4E316F104A9F643CF57
:1045F0000091EF061091F006F090F1066091F2063E
:104600006695669566958091CE059091CF050E943E
:1046100000070E944F07805887FD8195880F482F1B
:104620005F2D459F412D1124842FB8010E947806EB
:10463000F62EE72ED82E57E6A52E52E0B52E00E036
:1046400010E0D5018D915D019091050189238823AA
:1046500031F02D2D4F2D6E2DC8010E94070A0F5FDE
:104660001F4F0234110569F706CF8DE997E00E94CC
:10467000590E07C089EC97E0FACF87EF97E00E94C8
:10468000D90C909104019F5F909304018111CBCECE
:1046900082E080931601809106018111C4CE11231E
:1046A000BFCE85E198E0EBCF84E398E00E94210D36
:1046B000E8CF8FE498E0FACF8AE698E0D8CF8CE68E
:1046C00098E0D5CF85E798E0D2CF8EE798E0CFCFBE
:1046D00087E998E0EBCF88EA98E0D1CF81ED98E0C8
:1046E000CECF82EE98E0E2CF86EF98E00E94960D62
:1046F000C8CF84E299E0FACF83E599E0F7CF8091C3
:104700000601811120C06091F20620E1620F08F4D9
:104710006FEF8091CE059091CF050E9400076AE06F
:1047200070E00E94A032892B09F0A5CE0E943A07C2
:10473000B2E48B9F90011124832F932F990F990B33
:104740000E94F40D98CE00E010E0C8010E94F40D24
:104750000F5F1F4F02341105C1F78DCE8091060106
:10476000811120C06091F20620E1620F08F46FEF22
:104770008091CE059091CF050E94000765E070E022
:104780000E94A032892B09F076CE0E943A07E2E41B
:104790008E9F90011124832F932F990F990B0E94C4
:1047A000320E69CE00E010E0C8010E94320E0F5FA9
:1047B0001F4F02341105C1F75ECEF090F006009154
:1047C000F1061091EF066091F20666956695669582
:1047D0008091CE059091CF050E9400070E944F075F
:1047E000805887FD8195880F282F3CE0239F212D3D
:1047F0001124612F620F7F2D802F0E947806F62EE4
:10480000E72ED82E47E6A42E42E0B42E00E010E0BA
:10481000D5018D915D01909105018923882331F0A7
:104820002D2D4F2D6E2DC8010E94070A0F5F1F4FBF
:104830000234110569F71FCE8CE899E018CF82EB9E
:1048400099E015CF4091CE055091CF056091D005EC
:104850007091D1058091070490910804A0910904FA
:10486000B0910A0484179507A607B70708F003CE8E
:104870000E943A07B2E48B9F80011124012F110F8F
:10488000110BF801E959FD4F8081909105018923B1
:10489000882309F4F0CD0E943A0781FD3BC00E94B5
:1048A0003A07F82E0E943A07E0E88E9FC0011124D3
:1048B0007FE7790F8091F1066F2D0E947806462FD1
:1048C000672F282FC8010E94070A2091F20630E1C5
:1048D000230F08F42FEF60E1822F90E00E94000781
:1048E000BC0184EF91E00E94A0328091CE059091AE
:1048F000CF05A091D005B091D105860F971FA11DBE
:10490000B11D8093070490930804A0930904B09309
:104910000A04B1CD80E070E0F12CCECF4091D104FB
:104920005091D2046091D3047091D4048091CE054B
:104930009091CF05A091D005B091D105841795072E
:10494000A607B70708F497CD80910601811154C0DE
:1049500027E6C22E22E0D22E0BE014E0E12CF12C4F
:10496000F60181916F01909105018923882351F00F
:10497000D80112962C9112974C9111966C91C70107
:104980000E94070ABFEFEB1AFB0A0D5F1F4FE2E41C
:10499000EE16F10429F743EC50E06EE074E08BE092
:1049A00094E00E947E330E943A0781FF62C0109219
:1049B000CE041092CF041092D0040E94C3096987DC
:1049C0007A878B879C878091CE059091CF05A091A7
:1049D000D005B091D10529853A854B855C85820F3C
:1049E000931FA41FB51F8093D1049093D204A0936A
:1049F000D304B093D4043FCD40E060E080E00E9457
:104A00000A0A9BE0E92E94E0F92E00E010E00E94F3
:104A10003A0781FF10C0D7011C9211961C92119782
:104A200012961C920F5F1F4FB3E0EB0EF11C023485
:104A3000110569F78DCF0E943A07B82E0E943A07F8
:104A4000B0E88B9FC00111247FE7790F6801CC0C7F
:104A5000DD1CC00ED11EF601E55FFB4F6F016B2D13
:104A60008091F1060E947806D6016D937D938C9318
:104A7000D9CF0E943A07182F0E943A07F0E88F9F7B
:104A8000C00111247FE7790F612F8091F1060E9408
:104A900078066093CE047093CF048093D0048DCFBA
:104AA00080910601882329F040E060E080E00E94C8
:104AB0000A0A4091CE055091CF056091D0057091C2
:104AC000D1058091FD049091FE04A091FF04B09166
:104AD000000584179507A607B70708F0CCCC6091AE
:104AE000EF067091F0068091F1060E947806F62E8E
:104AF000E72E582EB5EDCB2EB4E0DB2E03E911E006
:104B0000480138015601412CD5012D915D01F30179
:104B100081913F0190E0222309F463C0252D4F2DA0
:104B20006E2D0E94070AD40117968C91252D4F2DCA
:104B30006E2D90E00E94070AD5018C91F501319706
:104B400080834394B1E08B1A9108E3E04E12DCCFEE
:104B5000D80113968C9190E0F6012381222309F469
:104B60004BC0252D4F2D6E2D0E94070AD80114969B
:104B70008C91252D4F2D6E2D90E00E94070A0E94EA
:104B80003A07837091E0811190E0D60113969C93CF
:104B9000B4E0CB0ED11C085F1F4FE1E0033E1E07BF
:104BA00009F0AECF0E94C30969877A878B879C87FB
:104BB0008091CE059091CF05A091D005B091D105FF
:104BC00029853A854B855C85820F931FA41FB51FED
:104BD0008093FD049093FE04A093FF04B09300051E
:104BE0004ACC20E040E060E00E94070AF40187819F
:104BF00020E040E060E09DCF20E040E060E00E94E7
:104C0000070AF801848120E040E060E0B5CF8091A0
:104C10000601882361F040E060E080E00E940A0A1B
:104C2000E9E0F6E080E5DF011D928A95E9F78091E1
:104C30000401811117C080910205909103050E9423
:104C4000ED0B9C0181E02931310508F480E080936F
:104C500001052931310530F00E94C40B9093030502
:104C600080930205C12CD12C712CF5E55F2EAAEAA8
:104C70006A2E442443947601812CF701ED56FE4FB1
:104C80000081023408F03EC010E0F801E959FD4F00
:104C90008081909105018923882309F432C0F701AE
:104CA000E75FF94F5F019080692D252D621B08F4A5
:104CB00060E07091F006262D392D230F08F42FEFB8
:104CC0003091F106822F880F820F8E5F482F439F0D
:104CD000412D1124842F562D561B652F0E947806D6
:104CE000462F672F282FC8010E94070A80910105CF
:104CF000882339F0292D342D231B08F420E0D50119
:104D00002C9373948394BFEFEB1AFB0AE8E08E12A6
:104D1000B4CFF8E4CF16D10409F4ADCB28E0C20E2D
:104D2000D11C31E4371508F0A6CFA5CB0091F106D0
:104D3000A02EB12C7501EE0CFF1CEA0CFB1CF694A6
:104D4000E794F694E7942E2C8FEF90E0B5010E9443
:104D5000B432462E80910601882371F040E060E075
:104D600080E00E940A0AE9E0F6E080E5DF011D929A
:104D70008A95E9F710920505809104058F5F80936D
:104D8000040569E0862E66E0962E312C35016E18FA
:104D90007F0850900505552079F06401512CD6010B
:104DA0008C91882389F0801778F49091040549123A
:104DB0000BC081508C9308C00E94583385359540B4
:104DC00064F7F40100836401AE014F5F5F4F632D10
:104DD000852D0E94F5098823D1F0F6018081E981B3
:104DE000F0E0282F30E0281608F059C02E193F09AE
:104DF0002E9DC0012F9D900D3E9D900D1124B3015D
:104E00000E94A032262F402FCF010E94070A539400
:104E1000F8E0CF0ED11C2AE05212C1CF33943FEFFD
:104E2000831A930A48E03412B4CF809104054812E3
:104E300002C010920405809105058F5F80930505DF
:104E4000909104018D3108F434C31092050529E4D2
:104E500036E089E049E556E09FEF900FE1E5F6E0A6
:104E60007901893021F46081061301C09083D70154
:104E70006D917D01601740F0BD0161507109DB014A
:104E80009C93D70117960C9331964E175F0749F7FD
:104E90008150285031098111E1CF80E0F2CB2A9D69
:104EA000C0012B9D900D3A9D900D1124B7010E94D9
:104EB000A032462F20E060E0A7CF82EE99E00E946A
:104EC0009D0EDFCB89EE99E0FACF6091F20620E1EA
:104ED000620F08F46FEF8091CE059091CF050E948C
:104EE00000076FE170E00E94A032892B79F50E94E3
:104EF000583362E470E00E94B4322FEF29838C01B2
:104F00001127F801E657FA4F7F012081211119C0BE
:104F10006AE00E949432AE014F5F5F4F682F892F85
:104F20000E94F5096091F106C8010E948B21F801E9
:104F3000E85BFA4F6083F801EA5FFA4F7083D701AC
:104F40008C938091CD058F5F8093CD0527E6422E0F
:104F500022E0522E36E0632E35E0732E4AE8842E8E
:104F600045E0942E53EEA52E51E0B52EE12CF12C08
:104F7000F20181912F01909105018923882309F481
:104F800062C02090DD058091CD0582958F7067E02D
:104F90000E949432E92FF0E0EE0FFF1FE75DFE4F15
:104FA000308021812D8746EF55E05A8749879DED56
:104FB000C92E95E0D92E10E08C2DEDEDF5E08E1B7D
:104FC000821508F452C00E2D2091F106129F112D6A
:104FD0001124632D7D85812F0E947806462F672F2F
:104FE000282FC7010E94070AF701E85BFA4FC0802B
:104FF000D301DC90F4011081FFEFF9838E2D6AE07C
:105000000E949432AE014F5F5F4F682F892F0E943C
:10501000F5092D2D30E0231B08F420E0D3012C935B
:10502000212F31E0231B08F420E0D4012C9322230C
:1050300051F0B601812F0E947806462F672F282F46
:10504000C7010E94070ABFEFEB1AFB0AEFEF6E1AC7
:105050007E0AFFEF8F1A9F0A22E0A20EB11C32E4F3
:10506000E316F10409F084CF06CAD5014C91F6018C
:105070008181481B550B11962C918185281B330B80
:10508000449FB001459F700D700D1124229FC001F7
:10509000239F900D900D1124860F971F0E940A07E1
:1050A000082F6091F20621E0620F08F46FEFA985E6
:1050B000BA858D919D91BA87A9870E940007801BB0
:1050C00091098F3F910511F008F08FEF282F20955F
:1050D000120F08F41FEFBFEFCB1ADB0A6DCF609100
:1050E000F20620E1620F08F46FEF8091CE059091F7
:1050F000CF050E9400076FE170E00E94A032892B6B
:1051000081F50E94583362E470E00E94B4322FEFC0
:1051100029838C011127A80146575A4F7A01DA01D9
:105120002C91211119C06AE00E949432AE014F5FA8
:105130005F4F682F892F0E94F5096091F106C80121
:105140000E948B21F801E85BFA4F6083F801EA5F67
:10515000FA4F7083F70180838091CD058F5F809334
:10516000CD0528E435E03E872D87B6E04B2EB5E02F
:105170005B2E1AE8612E15E0712E03EE802E01E001
:10518000902EA12CB12C2090DD05222D31E0231B87
:1051900008F420E0322E822F90E0AC0142525A4FA8
:1051A0006A01321408F440C0C5016AE070E00E9450
:1051B000B432AD85BE850D91BE87AD87F201F19009
:1051C0002F01D3011D913D01BFEFB983AE014F5FA8
:1051D0005F4F0E94F5092F2D30E0231B08F420E0DB
:1051E000F20131972083212F41E0241B08F420E0B5
:1051F000F30131972083222359F0602F7F2D812FD7
:105200000E947806462F672F282FC5010E94070AA3
:105210005FEFA51AB50A82E0880E911C92E4A916E8
:10522000B10409F0B0CF27C9D6018D916D01F40109
:10523000E080E81AFF08018117968C91081B110B7A
:10524000EE9C9001EF9C300D300D1124009FC001A9
:10525000019F900D900D1124820F931F0E940A0749
:1052600089876091F20621E0620F08F46FEFF60182
:10527000EE0FFF1FED5DF540858996890E940007BE
:105280009C0140E2E40EF11C51E4E516F104A8F59E
:10529000005E1F4F0134110510F084E68987C901B3
:1052A000A9858A0F911D880F991F880F991F8F3F1D
:1052B000910511F008F08FEF282F209530E0320F84
:1052C00008F43FEF3323B9F0B985B032A0F48091F0
:1052D000CD0567E00E949432E92FF0E0EE0FFF1F4A
:1052E000E75DFE4F81819081ED85FE859083D2013F
:1052F0008C93F3013083339454CF94E69987CFCFC6
:105300006091F20620E1620F08F46FEF8091CE0504
:105310009091CF050E9400076FE170E00E94A032DB
:10532000892B29F48091CD058F5F8093CD05109155
:10533000CC051234F0F46091EF067091F0062091E4
:10534000F106229F212D1124822F0E947806462FDC
:10535000672F282FE12FF0E0E95CFE4F808190E07D
:105360000E94070A8091CC058F5F8093CC050C9436
:105370003B2237E6A32E32E0B32E43EEC42E41E0AB
:10538000D42E00E010E05DED652E55E0752ED501C0
:105390008D915D01909105018923882399F12090D9
:1053A000DD058091CD0582958F7067E00E94943273
:1053B000E92FF0E0EE0FFF1FE75DFE4F3080B18177
:1053C000B98796EF892E95E0992E2DEDE22E25E0F6
:1053D000F22E512C8E2D86198215F8F03091F1069F
:1053E000511057C07091F006339F312D11246091F8
:1053F000EF06832F0E947806462F672F282FC801BB
:105400000E94070A0F5F1F4FE2E0CE0ED11C02344C
:10541000110509F0BCCF0C943B22F6014081D70165
:1054200011968C911197481B550B218119968C91DF
:10543000281B330B449FB001459F700D700D112444
:10544000229FC001239F900D900D1124860F971F5E
:105450000E940A07482E6091F20621E0620F08F4CC
:105460006FEFD4018D919D914D010E940007841929
:1054700091098F3F910511F008F08FEF282F2095AB
:10548000352D320F08F43FEF532EBFEFEB1AFB0A16
:10549000A1CF252D239F212D1124632D7985822FC6
:1054A000A9CF809104018F5F8093040183E00C9465
:1054B000412281E0890F0C943E224F925F926F92BD
:1054C0007F928F929F92AF92BF92CF92DF92EF9294
:1054D000FF92C090FF03D0900004E0900104F09090
:1054E00002048FB7F8944090030450900404609035
:1054F0000504709006048FBF530142018C189D086B
:10550000AE08BF080E94D00B282F6093FF03709352
:1055100000048093010490930204A0915906E9E5E8
:10552000F6E08A2F30E04FEFC40ED41EE11CF11CD0
:10553000C418D508E608F708A3132EC080935906AF
:105540008091070681113BC03091EE06832F837056
:10555000882319F0832F8695869530911601323075
:1055600009F441C070F531113BC010920401609301
:10557000CE057093CF052093D0059093D10589E295
:10558000E9E5F6E0ADEDB5E001900D928A95E1F721
:1055900081E08093160117C0418D528D2A01612C44
:1055A000712CC414D504E604F70420F481503F5F45
:1055B0003296C2CF480D591D528F418FF8CF80E0EF
:1055C000CCCF333099F0FF90EF90DF90CF90BF9029
:1055D000AF909F908F907F906F905F904F900895C5
:1055E0000E94C821F0CF0E940D0AEDCF8091DC050A
:1055F00081110E946B204091CE055091CF056091A2
:10560000D0057091D1052FB7F89480910304909143
:105610000404A0910504B09106042FBF841B950BD0
:10562000A60BB70B4097A105B10568F210921601C1
:10563000CACFCDB7DEB7C954D1090FB6F894DEBFD3
:105640000FBECDBF85B7806885BF85B7806885BF31
:1056500084B7877F84BF0FB6F894A89580916000C7
:10566000886180936000109260000FBE80E890E037
:105670000FB6F89480936100909361000FBE86E7A7
:1056800096E09093F1028093F0020E94BA0C0E947F
:105690003C0F8091E20084608093E20078948091D6
:1056A0009C06882399F08091E9001091EC001795F1
:1056B000112717958F70182B1092E9008091E80040
:1056C00083FD0E943F1D1F701093E90082E084BD9E
:1056D00093E095BD9AEF97BD80936E000E943F12B4
:1056E000811102C00E942F1181E080938F06529891
:1056F0005A9A24982C9A8FE891E00197F1F700C00C
:10570000000020918F0640E956E0FA018E2F841B9D
:10571000821708F4D4C0E1E8F1E04BE851E09F01C2
:1057200061E070E0D9018D919D01A82FA295AF7025
:10573000B0E091961C9191978F707B0102C0EE0CA6
:10574000FF1C8A95E2F7C7019E2D909591239196B3
:105750009C93919792969C919297892B92968C9379
:1057600042175307F9F62BE831E0A90161E070E038
:10577000DA018D91AD01A82FA295AF70B0E091969E
:105780001C9191978F707B0102C0EE0CFF1C8A95D3
:10579000E2F7C7019E2D9095912391969C93919746
:1057A00092969C919297892B92968C9301E0433923
:1057B0005007F1F641E050E0D9018D919D01A82FED
:1057C000A295AF70B0E091966C9191978F707A012D
:1057D00002C0EE0CFF1C8A95E2F7C7019E2D909542
:1057E000962391969C93919792969C919297892B50
:1057F00092968C9301E023393007F1F641E050E0B6
:105800008191A82FA295AF70B0E091962C919197BD
:105810008F70BA0102C0660F771F8A95E2F7CB013D
:10582000962F9095922391969C93919792969C9106
:105830009297892B92968C9371E0EB38F70701F7DA
:105840008AE0E2EDF5E0DF01E82E1D92EA94E9F747
:10585000E2E9F6E0DF011D928A95E9F780E090E049
:105860000E94AF33863E9E4F21F40E943F12811169
:1058700002C00E94F91F82E090E00E94A73380934B
:10588000820684E090E00E94AF339093FD068093FF
:10589000FC060E948A20EFE3FCE93197F1F700C093
:1058A00000000E948A208091920680FF13C06FEF53
:1058B0007FEF80E090E00E94E3330E94FC0B99B1FF
:1058C00083B182958170880F92FB992790F9892B7B
:1058D00081931CCF83E090E00E94A7330E944E0387
:1058E0000E94C60A1092DD0540E150E06FEF70E0C3
:1058F00086EF95E00E9490331092590640E150E007
:105900006FEF70E082E796E00E94903380E090E0D5
:105910000E94AF33863E9E4F21F40E943F128111B8
:1059200004C00E94F91F0E94762081E08093DC056C
:1059300048E050E068E170E08EEE96E00E94973318
:105940001092DC058091EE06843010F40E947620DF
:105950008BE091E09093C0068093BF066624639429
:10596000AA24A3948E010F5F1F4F1AAF09AF19AD80
:1059700024961FAF2497EAAC2596EFAE2597809129
:105980009C0610E4853009F4EDC00E948A2003E8EB
:1059900016E01CAF0BAF02E916E021961FAF0EAF69
:1059A00021972DE836E0D801E3E8F6E091918D915A
:1059B0002E173F0709F4FAC09817C1F3F12C212CD8
:1059C000312C2196AEADBFAD2197CD902196BFAFC2
:1059D000AEAF2197EBADFCAD8191FCAFEBAF8C1579
:1059E00009F4A1C18C2526968FAF26972101E12CC1
:1059F000BB24B39426968FAD26978B21882309F478
:105A000086C17B2C7C20E982FA820E94C40B9C8395
:105A10008B83F1E0FD8391E0711001C090E09E83E3
:105A200049815A816B817C818D810E94961CD12C89
:105A3000772059F024964FAD249725965FAD259792
:105A40006E2D8F2D0E94F509D82E0D2D10E080911E
:105A50005906800F912F911D09976CF188E0882ECF
:105A6000912C801A910AB801665A794FA4018AE5EF
:105A700096E00E947533B8016E59794FA40182E611
:105A800096E00E947533A401440F551FB801660FBC
:105A9000771F6E58794F82E796E00E947533B80100
:105AA0006659794FA4018AE696E00E94753388E032
:105AB0008D198093590610915906AE014F5F5F4FC3
:105AC00060E0CFC080919C06843009F43BC0809197
:105AD0000706811105C00E94C82180E00E940D0ABE
